{"abi":[{"type":"function","name":"DOMAIN_SEPARATOR","inputs":[],"outputs":[{"name":"","type":"bytes32","internalType":"bytes32"}],"stateMutability":"view"},{"type":"function","name":"allowance","inputs":[{"name":"owner","type":"address","internalType":"address"},{"name":"spender","type":"address","internalType":"address"}],"outputs":[{"name":"","type":"uint256","internalType":"uint256"}],"stateMutability":"view"},{"type":"function","name":"approve","inputs":[{"name":"spender","type":"address","internalType":"address"},{"name":"amount","type":"uint256","internalType":"uint256"}],"outputs":[{"name":"","type":"bool","internalType":"bool"}],"stateMutability":"nonpayable"},{"type":"function","name":"balanceOf","inputs":[{"name":"owner","type":"address","internalType":"address"}],"outputs":[{"name":"","type":"uint256","internalType":"uint256"}],"stateMutability":"view"},{"type":"function","name":"decimals","inputs":[],"outputs":[{"name":"","type":"uint8","internalType":"uint8"}],"stateMutability":"view"},{"type":"function","name":"initialize","inputs":[{"name":"name_","type":"string","internalType":"string"},{"name":"symbol_","type":"string","internalType":"string"},{"name":"decimals_","type":"uint8","internalType":"uint8"}],"outputs":[],"stateMutability":"nonpayable"},{"type":"function","name":"name","inputs":[],"outputs":[{"name":"","type":"string","internalType":"string"}],"stateMutability":"view"},{"type":"function","name":"nonces","inputs":[{"name":"","type":"address","internalType":"address"}],"outputs":[{"name":"","type":"uint256","internalType":"uint256"}],"stateMutability":"view"},{"type":"function","name":"permit","inputs":[{"name":"owner","type":"address","internalType":"address"},{"name":"spender","type":"address","internalType":"address"},{"name":"value","type":"uint256","internalType":"uint256"},{"name":"deadline","type":"uint256","internalType":"uint256"},{"name":"v","type":"uint8","internalType":"uint8"},{"name":"r","type":"bytes32","internalType":"bytes32"},{"name":"s","type":"bytes32","internalType":"bytes32"}],"outputs":[],"stateMutability":"nonpayable"},{"type":"function","name":"symbol","inputs":[],"outputs":[{"name":"","type":"string","internalType":"string"}],"stateMutability":"view"},{"type":"function","name":"totalSupply","inputs":[],"outputs":[{"name":"","type":"uint256","internalType":"uint256"}],"stateMutability":"view"},{"type":"function","name":"transfer","inputs":[{"name":"to","type":"address","internalType":"address"},{"name":"amount","type":"uint256","internalType":"uint256"}],"outputs":[{"name":"","type":"bool","internalType":"bool"}],"stateMutability":"nonpayable"},{"type":"function","name":"transferFrom","inputs":[{"name":"from","type":"address","internalType":"address"},{"name":"to","type":"address","internalType":"address"},{"name":"amount","type":"uint256","internalType":"uint256"}],"outputs":[{"name":"","type":"bool","internalType":"bool"}],"stateMutability":"nonpayable"},{"type":"event","name":"Approval","inputs":[{"name":"owner","type":"address","indexed":true,"internalType":"address"},{"name":"spender","type":"address","indexed":true,"internalType":"address"},{"name":"value","type":"uint256","indexed":false,"internalType":"uint256"}],"anonymous":false},{"type":"event","name":"Transfer","inputs":[{"name":"from","type":"address","indexed":true,"internalType":"address"},{"name":"to","type":"address","indexed":true,"internalType":"address"},{"name":"value","type":"uint256","indexed":false,"internalType":"uint256"}],"anonymous":false}],"bytecode":{"object":"0x608060405234801561001057600080fd5b5061104f806100206000396000f3fe608060405234801561001057600080fd5b50600436106100df5760003560e01c80633644e5151161008c57806395d89b411161006657806395d89b41146103cb578063a9059cbb146103d3578063d505accf1461040c578063dd62ed3e1461046a576100df565b80633644e5151461035d57806370a08231146103655780637ecebe0014610398576100df565b806318160ddd116100bd57806318160ddd146102e257806323b872dd146102fc578063313ce5671461033f576100df565b806306fdde03146100e4578063095ea7b3146101615780631624f6c6146101ae575b600080fd5b6100ec6104a5565b6040805160208082528351818301528351919283929083019185019080838360005b8381101561012657818101518382015260200161010e565b50505050905090810190601f1680156101535780820380516001836020036101000a031916815260200191505b509250505060405180910390f35b61019a6004803603604081101561017757600080fd5b5073ffffffffffffffffffffffffffffffffffffffff8135169060200135610559565b604080519115158252519081900360200190f35b6102e0600480360360608110156101c457600080fd5b8101906020810181356401000000008111156101df57600080fd5b8201836020820111156101f157600080fd5b8035906020019184600183028401116401000000008311171561021357600080fd5b91908080601f016020809104026020016040519081016040528093929190818152602001838380828437600092019190915250929594936020810193503591505064010000000081111561026657600080fd5b82018360208201111561027857600080fd5b8035906020019184600183028401116401000000008311171561029a57600080fd5b91908080601f0160208091040260200160405190810160405280939291908181526020018383808284376000920191909152509295505050903560ff1691506105cc9050565b005b6102ea6106d9565b60408051918252519081900360200190f35b61019a6004803603606081101561031257600080fd5b5073ffffffffffffffffffffffffffffffffffffffff8135811691602081013590911690604001356106df565b61034761084e565b6040805160ff9092168252519081900360200190f35b6102ea610857565b6102ea6004803603602081101561037b57600080fd5b503573ffffffffffffffffffffffffffffffffffffffff1661087f565b6102ea600480360360208110156103ae57600080fd5b503573ffffffffffffffffffffffffffffffffffffffff166108a7565b6100ec6108b9565b61019a600480360360408110156103e957600080fd5b5073ffffffffffffffffffffffffffffffffffffffff8135169060200135610937565b6102e0600480360360e081101561042257600080fd5b5073ffffffffffffffffffffffffffffffffffffffff813581169160208101359091169060408101359060608101359060ff6080820135169060a08101359060c001356109f5565b6102ea6004803603604081101561048057600080fd5b5073ffffffffffffffffffffffffffffffffffffffff81358116916020013516610d2b565b60008054604080516020601f60027fffffffffffffffffffffffffffffffffffffffffffffffffffffffffffffffff61010060018816150201909516949094049384018190048102820181019092528281526060939092909183018282801561054f5780601f106105245761010080835404028352916020019161054f565b820191906000526020600020905b81548152906001019060200180831161053257829003601f168201915b5050505050905090565b33600081815260056020908152604080832073ffffffffffffffffffffffffffffffffffffffff8716808552908352818420869055815186815291519394909390927f8c5be1e5ebec7d5bd14f71427d1e84f3dd0314c0f7b2291e5b200ac8c7c3b925928290030190a350600192915050565b60095460ff161561063e57604080517f08c379a000000000000000000000000000000000000000000000000000000000815260206004820152601360248201527f414c52454144595f494e495449414c495a454400000000000000000000000000604482015290519081900360640190fd5b8251610651906000906020860190610f86565b508151610665906001906020850190610f86565b50600280547fffffffffffffffffffffffffffffffffffffffffffffffffffffffffffffff001660ff831617905561069b610d63565b6006556106a6610d7c565b6007555050600980547fffffffffffffffffffffffffffffffffffffffffffffffffffffffffffffff0016600117905550565b60035490565b73ffffffffffffffffffffffffffffffffffffffff831660009081526005602090815260408083203384529091528120547fffffffffffffffffffffffffffffffffffffffffffffffffffffffffffffffff8114610773576107418184610e90565b73ffffffffffffffffffffffffffffffffffffffff861660009081526005602090815260408083203384529091529020555b73ffffffffffffffffffffffffffffffffffffffff85166000908152600460205260409020546107a39084610e90565b73ffffffffffffffffffffffffffffffffffffffff80871660009081526004602052604080822093909355908616815220546107df9084610f07565b73ffffffffffffffffffffffffffffffffffffffff80861660008181526004602090815260409182902094909455805187815290519193928916927fddf252ad1be2c89b69c2b068fc378daa952ba7f163c4a11628f55a4df523b3ef92918290030190a3506001949350505050565b60025460ff1690565b6000600654610864610d63565b1461087657610871610d7c565b61087a565b6007545b905090565b73ffffffffffffffffffffffffffffffffffffffff1660009081526004602052604090205490565b60086020526000908152604090205481565b60018054604080516020601f60027fffffffffffffffffffffffffffffffffffffffffffffffffffffffffffffffff610100878916150201909516949094049384018190048102820181019092528281526060939092909183018282801561054f5780601f106105245761010080835404028352916020019161054f565b336000908152600460205260408120546109519083610e90565b336000908152600460205260408082209290925573ffffffffffffffffffffffffffffffffffffffff85168152205461098a9083610f07565b73ffffffffffffffffffffffffffffffffffffffff84166000818152600460209081526040918290209390935580518581529051919233927fddf252ad1be2c89b69c2b068fc378daa952ba7f163c4a11628f55a4df523b3ef9281900390910190a350600192915050565b42841015610a6457604080517f08c379a000000000000000000000000000000000000000000000000000000000815260206004820152601760248201527f5045524d49545f444541444c494e455f45585049524544000000000000000000604482015290519081900360640190fd5b60006001610a70610857565b73ffffffffffffffffffffffffffffffffffffffff808b16600081815260086020908152604080832080546001810190915581517f6e71edae12b1b97f4d1f60370fef10105fa2faae0126114a169c64845d6126c98185015280830195909552948e166060850152608084018d905260a084019490945260c08084018c90528451808503909101815260e0840185528051908201207f1901000000000000000000000000000000000000000000000000000000000000610100850152610102840195909552610122808401959095528351808403909501855261014283018085528551958201959095209190945261016282018084525260ff88166101828201526101a281018790526101c2810186905290516101e280830193927fffffffffffffffffffffffffffffffffffffffffffffffffffffffffffffffe08301929081900390910190855afa158015610bcb573d6000803e3d6000fd5b50506040517fffffffffffffffffffffffffffffffffffffffffffffffffffffffffffffffe0015191505073ffffffffffffffffffffffffffffffffffffffff811615801590610c4657508773ffffffffffffffffffffffffffffffffffffffff168173ffffffffffffffffffffffffffffffffffffffff16145b610cb157604080517f08c379a000000000000000000000000000000000000000000000000000000000815260206004820152600e60248201527f494e56414c49445f5349474e4552000000000000000000000000000000000000604482015290519081900360640190fd5b73ffffffffffffffffffffffffffffffffffffffff80821660009081526005602090815260408083208b8516808552908352928190208a905580518a8152905192938c16927f8c5be1e5ebec7d5bd14f71427d1e84f3dd0314c0f7b2291e5b200ac8c7c3b925929181900390910190a35050505050505050565b73ffffffffffffffffffffffffffffffffffffffff918216600090815260056020908152604080832093909416825291909152205490565b6000610f8280610d7563ffffffff8216565b9250505090565b60007f8b73c3c69bb8fe3d512ecc4cf759cc79239f7b179b0ffacaa9a75d522b39400f60006040518082805460018160011615610100020316600290048015610dfc5780601f10610dda576101008083540402835291820191610dfc565b820191906000526020600020905b815481529060010190602001808311610de8575b505091505060405180910390207fc89efdaa54c0f20c7adf612882df0950f5a951637e0307cdcb4c672f298b8bc6610e32610d63565b30604051602001808681526020018581526020018481526020018381526020018273ffffffffffffffffffffffffffffffffffffffff1681526020019550505050505060405160208183030381529060405280519060200120905090565b600081831015610f0157604080517f08c379a000000000000000000000000000000000000000000000000000000000815260206004820152601c60248201527f45524332303a207375627472616374696f6e20756e646572666c6f7700000000604482015290519081900360640190fd5b50900390565b600082820183811015610f7b57604080517f08c379a000000000000000000000000000000000000000000000000000000000815260206004820152601860248201527f45524332303a206164646974696f6e206f766572666c6f770000000000000000604482015290519081900360640190fd5b9392505050565b4690565b828054600181600116156101000203166002900490600052602060002090601f016020900481019282601f10610fc757805160ff1916838001178555610ff4565b82800160010185558215610ff4579182015b82811115610ff4578251825591602001919060010190610fd9565b50611000929150611004565b5090565b5b80821115611000576000815560010161100556fea26469706673582212201d63ce296cbff06fff68eade9d48f57d3696aca9a0071fc31d9d4873f8a3783064736f6c634300060c0033","linkReferences":{}},"methodIdentifiers":{"DOMAIN_SEPARATOR()":"3644e515","allowance(address,address)":"dd62ed3e","approve(address,uint256)":"095ea7b3","balanceOf(address)":"70a08231","decimals()":"313ce567","initialize(string,string,uint8)":"1624f6c6","name()":"06fdde03","nonces(address)":"7ecebe00","permit(address,address,uint256,uint256,uint8,bytes32,bytes32)":"d505accf","symbol()":"95d89b41","totalSupply()":"18160ddd","transfer(address,uint256)":"a9059cbb","transferFrom(address,address,uint256)":"23b872dd"},"id":47}